{
  "_format": "hh-sol-artifact-1",
  "contractName": "BattleShipGame",
  "sourceName": "contracts/Battleship.sol",
  "abi": [
    {
      "inputs": [
        {
          "internalType": "address[]",
          "name": "_playersAddress",
          "type": "address[]"
        }
      ],
      "stateMutability": "payable",
      "type": "constructor"
    },
    {
      "anonymous": false,
      "inputs": [],
      "name": "GameOver",
      "type": "event"
    },
    {
      "anonymous": false,
      "inputs": [],
      "name": "GameStarted",
      "type": "event"
    },
    {
      "anonymous": false,
      "inputs": [
        {
          "indexed": false,
          "internalType": "uint256",
          "name": "turn",
          "type": "uint256"
        }
      ],
      "name": "LastTurnReport",
      "type": "event"
    },
    {
      "anonymous": false,
      "inputs": [
        {
          "indexed": false,
          "internalType": "uint256",
          "name": "turn",
          "type": "uint256"
        }
      ],
      "name": "LastTurnShot",
      "type": "event"
    },
    {
      "anonymous": false,
      "inputs": [
        {
          "indexed": false,
          "internalType": "address",
          "name": "player",
          "type": "address"
        },
        {
          "indexed": false,
          "internalType": "uint256",
          "name": "playerIndex",
          "type": "uint256"
        }
      ],
      "name": "PlayerJoinedGame",
      "type": "event"
    },
    {
      "anonymous": false,
      "inputs": [
        {
          "indexed": false,
          "internalType": "address",
          "name": "player",
          "type": "address"
        }
      ],
      "name": "PlayerLost",
      "type": "event"
    },
    {
      "anonymous": false,
      "inputs": [
        {
          "components": [
            {
              "internalType": "uint8",
              "name": "x",
              "type": "uint8"
            },
            {
              "internalType": "uint8",
              "name": "y",
              "type": "uint8"
            }
          ],
          "indexed": false,
          "internalType": "struct BattleShipGame.Coordinate",
          "name": "coord",
          "type": "tuple"
        },
        {
          "indexed": false,
          "internalType": "address",
          "name": "target",
          "type": "address"
        },
        {
          "indexed": false,
          "internalType": "address",
          "name": "shotBy",
          "type": "address"
        },
        {
          "indexed": false,
          "internalType": "bool",
          "name": "isHit",
          "type": "bool"
        }
      ],
      "name": "ShotReport",
      "type": "event"
    },
    {
      "inputs": [],
      "name": "NO_PLAYERS",
      "outputs": [
        {
          "internalType": "uint256",
          "name": "",
          "type": "uint256"
        }
      ],
      "stateMutability": "view",
      "type": "function"
    },
    {
      "inputs": [],
      "name": "NO_SHIP_PIECES",
      "outputs": [
        {
          "internalType": "uint256",
          "name": "",
          "type": "uint256"
        }
      ],
      "stateMutability": "view",
      "type": "function"
    },
    {
      "inputs": [
        {
          "internalType": "bytes32",
          "name": "_hashedMessage",
          "type": "bytes32"
        },
        {
          "internalType": "uint8",
          "name": "_v",
          "type": "uint8"
        },
        {
          "internalType": "bytes32",
          "name": "_r",
          "type": "bytes32"
        },
        {
          "internalType": "bytes32",
          "name": "_s",
          "type": "bytes32"
        }
      ],
      "name": "RecoverSigner",
      "outputs": [
        {
          "internalType": "address",
          "name": "",
          "type": "address"
        }
      ],
      "stateMutability": "pure",
      "type": "function"
    },
    {
      "inputs": [
        {
          "internalType": "bytes",
          "name": "sig",
          "type": "bytes"
        }
      ],
      "name": "SplitSignature",
      "outputs": [
        {
          "internalType": "uint8",
          "name": "v",
          "type": "uint8"
        },
        {
          "internalType": "bytes32",
          "name": "r",
          "type": "bytes32"
        },
        {
          "internalType": "bytes32",
          "name": "s",
          "type": "bytes32"
        }
      ],
      "stateMutability": "pure",
      "type": "function"
    },
    {
      "inputs": [
        {
          "internalType": "address",
          "name": "",
          "type": "address"
        }
      ],
      "name": "destroyedPlayers",
      "outputs": [
        {
          "internalType": "bool",
          "name": "",
          "type": "bool"
        }
      ],
      "stateMutability": "view",
      "type": "function"
    },
    {
      "inputs": [],
      "name": "endTurn",
      "outputs": [
        {
          "internalType": "bool",
          "name": "",
          "type": "bool"
        }
      ],
      "stateMutability": "nonpayable",
      "type": "function"
    },
    {
      "inputs": [
        {
          "internalType": "address",
          "name": "_player",
          "type": "address"
        }
      ],
      "name": "getPlayerHistory",
      "outputs": [
        {
          "components": [
            {
              "internalType": "uint8",
              "name": "x",
              "type": "uint8"
            },
            {
              "internalType": "uint8",
              "name": "y",
              "type": "uint8"
            },
            {
              "internalType": "bool",
              "name": "isHit",
              "type": "bool"
            }
          ],
          "internalType": "struct BattleShipGame.HittedCoordinate[]",
          "name": "",
          "type": "tuple[]"
        }
      ],
      "stateMutability": "view",
      "type": "function"
    },
    {
      "inputs": [],
      "name": "getWinner",
      "outputs": [
        {
          "internalType": "address",
          "name": "winner",
          "type": "address"
        }
      ],
      "stateMutability": "view",
      "type": "function"
    },
    {
      "inputs": [],
      "name": "hasReportedShots",
      "outputs": [
        {
          "internalType": "bool",
          "name": "",
          "type": "bool"
        }
      ],
      "stateMutability": "view",
      "type": "function"
    },
    {
      "inputs": [],
      "name": "isGameOver",
      "outputs": [
        {
          "internalType": "bool",
          "name": "",
          "type": "bool"
        }
      ],
      "stateMutability": "view",
      "type": "function"
    },
    {
      "inputs": [],
      "name": "isGameStarted",
      "outputs": [
        {
          "internalType": "bool",
          "name": "",
          "type": "bool"
        }
      ],
      "stateMutability": "view",
      "type": "function"
    },
    {
      "inputs": [],
      "name": "isTurnOver",
      "outputs": [
        {
          "internalType": "bool",
          "name": "",
          "type": "bool"
        }
      ],
      "stateMutability": "view",
      "type": "function"
    },
    {
      "inputs": [
        {
          "internalType": "bytes[]",
          "name": "_playerShips",
          "type": "bytes[]"
        }
      ],
      "name": "joinGame",
      "outputs": [],
      "stateMutability": "nonpayable",
      "type": "function"
    },
    {
      "inputs": [],
      "name": "numberOfDestroyedPlayers",
      "outputs": [
        {
          "internalType": "uint256",
          "name": "",
          "type": "uint256"
        }
      ],
      "stateMutability": "view",
      "type": "function"
    },
    {
      "inputs": [],
      "name": "owner",
      "outputs": [
        {
          "internalType": "address payable",
          "name": "",
          "type": "address"
        }
      ],
      "stateMutability": "view",
      "type": "function"
    },
    {
      "inputs": [
        {
          "internalType": "address",
          "name": "",
          "type": "address"
        }
      ],
      "name": "playerHasPlacedShips",
      "outputs": [
        {
          "internalType": "bool",
          "name": "",
          "type": "bool"
        }
      ],
      "stateMutability": "view",
      "type": "function"
    },
    {
      "inputs": [
        {
          "internalType": "address",
          "name": "",
          "type": "address"
        }
      ],
      "name": "playerHasPlayed",
      "outputs": [
        {
          "internalType": "bool",
          "name": "",
          "type": "bool"
        }
      ],
      "stateMutability": "view",
      "type": "function"
    },
    {
      "inputs": [
        {
          "internalType": "address",
          "name": "",
          "type": "address"
        }
      ],
      "name": "playerHasReportedHits",
      "outputs": [
        {
          "internalType": "bool",
          "name": "",
          "type": "bool"
        }
      ],
      "stateMutability": "view",
      "type": "function"
    },
    {
      "inputs": [
        {
          "internalType": "address",
          "name": "",
          "type": "address"
        },
        {
          "internalType": "uint256",
          "name": "",
          "type": "uint256"
        }
      ],
      "name": "playerHistory",
      "outputs": [
        {
          "internalType": "uint8",
          "name": "x",
          "type": "uint8"
        },
        {
          "internalType": "uint8",
          "name": "y",
          "type": "uint8"
        },
        {
          "internalType": "bool",
          "name": "isHit",
          "type": "bool"
        }
      ],
      "stateMutability": "view",
      "type": "function"
    },
    {
      "inputs": [
        {
          "internalType": "address",
          "name": "",
          "type": "address"
        }
      ],
      "name": "playerShots",
      "outputs": [
        {
          "internalType": "uint8",
          "name": "x",
          "type": "uint8"
        },
        {
          "internalType": "uint8",
          "name": "y",
          "type": "uint8"
        }
      ],
      "stateMutability": "view",
      "type": "function"
    },
    {
      "inputs": [
        {
          "internalType": "address",
          "name": "",
          "type": "address"
        }
      ],
      "name": "players",
      "outputs": [
        {
          "internalType": "bool",
          "name": "",
          "type": "bool"
        }
      ],
      "stateMutability": "view",
      "type": "function"
    },
    {
      "inputs": [
        {
          "internalType": "uint256",
          "name": "",
          "type": "uint256"
        }
      ],
      "name": "playersAddress",
      "outputs": [
        {
          "internalType": "address",
          "name": "",
          "type": "address"
        }
      ],
      "stateMutability": "view",
      "type": "function"
    },
    {
      "inputs": [
        {
          "components": [
            {
              "internalType": "bytes",
              "name": "signature",
              "type": "bytes"
            },
            {
              "internalType": "address",
              "name": "shotBy",
              "type": "address"
            }
          ],
          "internalType": "struct BattleShipGame.ShipShotProof[]",
          "name": "_shotSignatures",
          "type": "tuple[]"
        }
      ],
      "name": "reportHits",
      "outputs": [],
      "stateMutability": "nonpayable",
      "type": "function"
    },
    {
      "inputs": [
        {
          "components": [
            {
              "internalType": "uint8",
              "name": "x",
              "type": "uint8"
            },
            {
              "internalType": "uint8",
              "name": "y",
              "type": "uint8"
            }
          ],
          "internalType": "struct BattleShipGame.Coordinate",
          "name": "_coord",
          "type": "tuple"
        }
      ],
      "name": "takeAShot",
      "outputs": [],
      "stateMutability": "nonpayable",
      "type": "function"
    },
    {
      "inputs": [],
      "name": "turn",
      "outputs": [
        {
          "internalType": "uint256",
          "name": "",
          "type": "uint256"
        }
      ],
      "stateMutability": "view",
      "type": "function"
    }
  ],
  "bytecode": "0x60806040526040516200376f3803806200376f8339818101604052810190620000299190620003e9565b600281511462000070576040517f08c379a00000000000000000000000000000000000000000000000000000000081526004016200006790620004c1565b60405180910390fd5b60005b8151811015620001ab576000828281518110620000955762000094620004e3565b5b6020026020010151905060018060008373ffffffffffffffffffffffffffffffffffffffff1673ffffffffffffffffffffffffffffffffffffffff16815260200190815260200160002060006101000a81548160ff0219169083151502179055506002819080600181540180825580915050600190039060005260206000200160009091909190916101000a81548173ffffffffffffffffffffffffffffffffffffffff021916908373ffffffffffffffffffffffffffffffffffffffff1602179055507f3cdcff039830bc8941208e97e0bea06dc34c3348c6b6a002c6d0f2235dd0250d81836040516200018c9291906200053e565b60405180910390a1508080620001a2906200059a565b91505062000073565b50336000806101000a81548173ffffffffffffffffffffffffffffffffffffffff021916908373ffffffffffffffffffffffffffffffffffffffff1602179055506000600d8190555050620005e7565b6000604051905090565b600080fd5b600080fd5b600080fd5b6000601f19601f8301169050919050565b7f4e487b7100000000000000000000000000000000000000000000000000000000600052604160045260246000fd5b6200025f8262000214565b810181811067ffffffffffffffff8211171562000281576200028062000225565b5b80604052505050565b600062000296620001fb565b9050620002a4828262000254565b919050565b600067ffffffffffffffff821115620002c757620002c662000225565b5b602082029050602081019050919050565b600080fd5b600073ffffffffffffffffffffffffffffffffffffffff82169050919050565b60006200030a82620002dd565b9050919050565b6200031c81620002fd565b81146200032857600080fd5b50565b6000815190506200033c8162000311565b92915050565b6000620003596200035384620002a9565b6200028a565b905080838252602082019050602084028301858111156200037f576200037e620002d8565b5b835b81811015620003ac57806200039788826200032b565b84526020840193505060208101905062000381565b5050509392505050565b600082601f830112620003ce57620003cd6200020f565b5b8151620003e084826020860162000342565b91505092915050565b60006020828403121562000402576200040162000205565b5b600082015167ffffffffffffffff8111156200042357620004226200020a565b5b6200043184828501620003b6565b91505092915050565b600082825260208201905092915050565b7f5f706c61796572734164647265737320646f6573206e6f74206d61746368207460008201527f6865206e756d626572206f6620657870656374656420706c6179657273000000602082015250565b6000620004a9603d836200043a565b9150620004b6826200044b565b604082019050919050565b60006020820190508181036000830152620004dc816200049a565b9050919050565b7f4e487b7100000000000000000000000000000000000000000000000000000000600052603260045260246000fd5b6200051d81620002fd565b82525050565b6000819050919050565b620005388162000523565b82525050565b600060408201905062000555600083018562000512565b6200056460208301846200052d565b9392505050565b7f4e487b7100000000000000000000000000000000000000000000000000000000600052601160045260246000fd5b6000620005a78262000523565b91507fffffffffffffffffffffffffffffffffffffffffffffffffffffffffffffffff8203620005dc57620005db6200056b565b5b600182019050919050565b61317880620005f76000396000f3fe608060405234801561001057600080fd5b50600436106101735760003560e01c80638b299903116100de57806393acd21911610097578063c2b9401a11610071578063c2b9401a1461048f578063c2d854c5146104bf578063c315432a146104dd578063e2eb41ff146104fb57610173565b806393acd219146104105780639dd9ab4d14610441578063a833b8bf1461047157610173565b80638b299903146103365780638da5cb5b146103545780638de7d7d3146103725780638e16641b1461038e5780638e49b463146103c05780638e7ea5b2146103f257610173565b80634feb7bee116101305780634feb7bee1461024e5780635263732b1461026c5780635341815c1461028857806359130f29146102b85780638249a69c146102e857806384b2656e1461031857610173565b806303583275146101785780630e04a7d81461019657806317a556c0146101b457806319a0a4da146101e45780633e9c2ea4146102025780634d049e731461021e575b600080fd5b61018061052b565b60405161018d9190611d15565b60405180910390f35b61019e610530565b6040516101ab9190611d4b565b60405180910390f35b6101ce60048036038101906101c99190611dd8565b610543565b6040516101db9190611d4b565b60405180910390f35b6101ec610563565b6040516101f99190611d15565b60405180910390f35b61021c600480360381019061021791906120a7565b610569565b005b61023860048036038101906102339190611dd8565b6108cb565b6040516102459190611d4b565b60405180910390f35b6102566108eb565b6040516102639190611d15565b60405180910390f35b61028660048036038101906102819190612179565b6108f0565b005b6102a2600480360381019061029d9190611dd8565b610bcd565b6040516102af9190611d4b565b60405180910390f35b6102d260048036038101906102cd91906121dc565b610bed565b6040516102df9190612252565b60405180910390f35b61030260048036038101906102fd9190611dd8565b610cb6565b60405161030f919061237c565b60405180910390f35b610320610da5565b60405161032d9190611d4b565b60405180910390f35b61033e610e76565b60405161034b9190611d15565b60405180910390f35b61035c610e7c565b60405161036991906123bf565b60405180910390f35b61038c600480360381019061038791906124bb565b610ea0565b005b6103a860048036038101906103a39190612530565b611245565b6040516103b79392919061257f565b60405180910390f35b6103da60048036038101906103d591906125b6565b6112af565b6040516103e99392919061260e565b60405180910390f35b6103fa611317565b6040516104079190612252565b60405180910390f35b61042a60048036038101906104259190611dd8565b611433565b604051610438929190612645565b60405180910390f35b61045b60048036038101906104569190611dd8565b611471565b6040516104689190611d4b565b60405180910390f35b610479611491565b6040516104869190611d4b565b60405180910390f35b6104a960048036038101906104a4919061266e565b611757565b6040516104b69190612252565b60405180910390f35b6104c7611796565b6040516104d49190611d4b565b60405180910390f35b6104e5611867565b6040516104f29190611d4b565b60405180910390f35b61051560048036038101906105109190611dd8565b611938565b6040516105229190611d4b565b60405180910390f35b600281565b600c60009054906101000a900460ff1681565b60056020528060005260406000206000915054906101000a900460ff1681565b60065481565b610571611867565b6105b0576040517f08c379a00000000000000000000000000000000000000000000000000000000081526004016105a7906126f8565b60405180910390fd5b600c60009054906101000a900460ff1615610600576040517f08c379a00000000000000000000000000000000000000000000000000000000081526004016105f790612764565b60405180910390fd5b610608611796565b610647576040517f08c379a000000000000000000000000000000000000000000000000000000000815260040161063e906127f6565b60405180910390fd5b60028151111561068c576040517f08c379a000000000000000000000000000000000000000000000000000000000815260040161068390612888565b60405180910390fd5b60005b81518110156108225760008282815181106106ad576106ac6128a8565b5b602002602001015190506000806106c383611958565b9150915081156106d8576106d73382611b3d565b5b7f555ee82f63a0f673d4f0af6c68260db1a41f9067bfa303611f3ba96db82657a181338560200151856040516107119493929190612906565b60405180910390a1600b60003373ffffffffffffffffffffffffffffffffffffffff1673ffffffffffffffffffffffffffffffffffffffff1681526020019081526020016000206040518060600160405280836000015160ff168152602001836020015160ff1681526020018415158152509080600181540180825580915050600190039060005260206000200160009091909190915060008201518160000160006101000a81548160ff021916908360ff16021790555060208201518160000160016101000a81548160ff021916908360ff16021790555060408201518160000160026101000a81548160ff0219169083151502179055505050505050808061081a9061297a565b91505061068f565b506001600a60003373ffffffffffffffffffffffffffffffffffffffff1673ffffffffffffffffffffffffffffffffffffffff16815260200190815260200160002060006101000a81548160ff02191690831515021790555060011515610887610da5565b1515036108c8577f20711e753d9f6a6515ed803629cc5e548bba428227e92a89b800911f34c558f2600d546040516108bf9190611d15565b60405180910390a15b50565b60096020528060005260406000206000915054906101000a900460ff1681565b600e81565b6108f8611867565b610937576040517f08c379a000000000000000000000000000000000000000000000000000000000815260040161092e906126f8565b60405180910390fd5b600c60009054906101000a900460ff1615610987576040517f08c379a000000000000000000000000000000000000000000000000000000000815260040161097e90612764565b60405180910390fd5b600160003373ffffffffffffffffffffffffffffffffffffffff1673ffffffffffffffffffffffffffffffffffffffff16815260200190815260200160002060009054906101000a900460ff16610a13576040517f08c379a0000000000000000000000000000000000000000000000000000000008152600401610a0a90612a34565b60405180910390fd5b600860003373ffffffffffffffffffffffffffffffffffffffff1673ffffffffffffffffffffffffffffffffffffffff16815260200190815260200160002060009054906101000a900460ff1615610aa0576040517f08c379a0000000000000000000000000000000000000000000000000000000008152600401610a9790612ac6565b60405180910390fd5b80600760003373ffffffffffffffffffffffffffffffffffffffff1673ffffffffffffffffffffffffffffffffffffffff16815260200190815260200160002060008201518160000160006101000a81548160ff021916908360ff16021790555060208201518160000160016101000a81548160ff021916908360ff1602179055509050506001600860003373ffffffffffffffffffffffffffffffffffffffff1673ffffffffffffffffffffffffffffffffffffffff16815260200190815260200160002060006101000a81548160ff02191690831515021790555060011515610b89611796565b151503610bca577fb03bc0d2e90217a9b0bc97d6ac0d4d4dd188aeeb8692ddc09aa79eee913d26b1600d54604051610bc19190611d15565b60405180910390a15b50565b60086020528060005260406000206000915054906101000a900460ff1681565b6000806040518060400160405280601c81526020017f19457468657265756d205369676e6564204d6573736167653a0a333200000000815250905060008187604051602001610c3d929190612b78565b604051602081830303815290604052805190602001209050600060018288888860405160008152602001604052604051610c7a9493929190612ba0565b6020604051602081039080840390855afa158015610c9c573d6000803e3d6000fd5b505050602060405103519050809350505050949350505050565b6060600b60008373ffffffffffffffffffffffffffffffffffffffff1673ffffffffffffffffffffffffffffffffffffffff168152602001908152602001600020805480602002602001604051908101604052809291908181526020016000905b82821015610d9a578382906000526020600020016040518060600160405290816000820160009054906101000a900460ff1660ff1660ff1681526020016000820160019054906101000a900460ff1660ff1660ff1681526020016000820160029054906101000a900460ff16151515158152505081526020019060010190610d17565b505050509050919050565b600080600090505b600280549050811015610e6d57600060028281548110610dd057610dcf6128a8565b5b9060005260206000200160009054906101000a900473ffffffffffffffffffffffffffffffffffffffff169050600a60008273ffffffffffffffffffffffffffffffffffffffff1673ffffffffffffffffffffffffffffffffffffffff16815260200190815260200160002060009054906101000a900460ff16610e5957600092505050610e73565b508080610e659061297a565b915050610dad565b50600190505b90565b600d5481565b60008054906101000a900473ffffffffffffffffffffffffffffffffffffffff1681565b600c60009054906101000a900460ff1615610ef0576040517f08c379a0000000000000000000000000000000000000000000000000000000008152600401610ee790612764565b60405180910390fd5b600160003373ffffffffffffffffffffffffffffffffffffffff1673ffffffffffffffffffffffffffffffffffffffff16815260200190815260200160002060009054906101000a900460ff16610f7c576040517f08c379a0000000000000000000000000000000000000000000000000000000008152600401610f7390612c57565b60405180910390fd5b600e815114610fc0576040517f08c379a0000000000000000000000000000000000000000000000000000000008152600401610fb790612ce9565b60405180910390fd5b600960003373ffffffffffffffffffffffffffffffffffffffff1673ffffffffffffffffffffffffffffffffffffffff16815260200190815260200160002060009054906101000a900460ff161561104d576040517f08c379a000000000000000000000000000000000000000000000000000000000815260040161104490612d55565b60405180910390fd5b60005b81518110156111a957600082828151811061106e5761106d6128a8565b5b60200260200101519050600360003373ffffffffffffffffffffffffffffffffffffffff1673ffffffffffffffffffffffffffffffffffffffff168152602001908152602001600020816040516110c59190612d75565b908152602001604051809103902060009054906101000a900460ff1615611121576040517f08c379a000000000000000000000000000000000000000000000000000000000815260040161111890612dfe565b60405180910390fd5b6001600360003373ffffffffffffffffffffffffffffffffffffffff1673ffffffffffffffffffffffffffffffffffffffff168152602001908152602001600020826040516111709190612d75565b908152602001604051809103902060006101000a81548160ff0219169083151502179055505080806111a19061297a565b915050611050565b506001600960003373ffffffffffffffffffffffffffffffffffffffff1673ffffffffffffffffffffffffffffffffffffffff16815260200190815260200160002060006101000a81548160ff0219169083151502179055506001151561120e611867565b151503611242577f762f260439bb4be3ef6e4dc2786e2e7bd187d3d80b79057d7a424fe98563e33560405160405180910390a15b50565b600b602052816000526040600020818154811061126157600080fd5b90600052602060002001600091509150508060000160009054906101000a900460ff16908060000160019054906101000a900460ff16908060000160029054906101000a900460ff16905083565b600080600060418451146112f8576040517f08c379a00000000000000000000000000000000000000000000000000000000081526004016112ef90612e6a565b60405180910390fd5b6020840151915060408401519050606084015160001a92509193909250565b6000600c60009054906101000a900460ff16611368576040517f08c379a000000000000000000000000000000000000000000000000000000000815260040161135f90612ed6565b60405180910390fd5b60005b60028054905081101561142a5760006002828154811061138e5761138d6128a8565b5b9060005260206000200160009054906101000a900473ffffffffffffffffffffffffffffffffffffffff169050600560008273ffffffffffffffffffffffffffffffffffffffff1673ffffffffffffffffffffffffffffffffffffffff16815260200190815260200160002060009054906101000a900460ff16611416578092505050611430565b5080806114229061297a565b91505061136b565b50600090505b90565b60076020528060005260406000206000915090508060000160009054906101000a900460ff16908060000160019054906101000a900460ff16905082565b600a6020528060005260406000206000915054906101000a900460ff1681565b600061149b611796565b6114da576040517f08c379a00000000000000000000000000000000000000000000000000000000081526004016114d190612f68565b60405180910390fd5b6114e2610da5565b611521576040517f08c379a000000000000000000000000000000000000000000000000000000000815260040161151890612ffa565b60405180910390fd5b6001600261152f919061301a565b6006541061157f576001600c60006101000a81548160ff0219169083151502179055507fdf469ccbe88d3fa5b8dc86f2ec56789684f26c46be3735d80d0788b9cfed041260405160405180910390a15b60005b600280549050811015611737576000600282815481106115a5576115a46128a8565b5b9060005260206000200160009054906101000a900473ffffffffffffffffffffffffffffffffffffffff1690506000600860008373ffffffffffffffffffffffffffffffffffffffff1673ffffffffffffffffffffffffffffffffffffffff16815260200190815260200160002060006101000a81548160ff0219169083151502179055506000600a60008373ffffffffffffffffffffffffffffffffffffffff1673ffffffffffffffffffffffffffffffffffffffff16815260200190815260200160002060006101000a81548160ff0219169083151502179055506040518060400160405280600060ff168152602001600060ff16815250600760008373ffffffffffffffffffffffffffffffffffffffff1673ffffffffffffffffffffffffffffffffffffffff16815260200190815260200160002060008201518160000160006101000a81548160ff021916908360ff16021790555060208201518160000160016101000a81548160ff021916908360ff16021790555090505050808061172f9061297a565b915050611582565b50600d600081548092919061174b9061297a565b91905055506001905090565b6002818154811061176757600080fd5b906000526020600020016000915054906101000a900473ffffffffffffffffffffffffffffffffffffffff1681565b600080600090505b60028054905081101561185e576000600282815481106117c1576117c06128a8565b5b9060005260206000200160009054906101000a900473ffffffffffffffffffffffffffffffffffffffff169050600860008273ffffffffffffffffffffffffffffffffffffffff1673ffffffffffffffffffffffffffffffffffffffff16815260200190815260200160002060009054906101000a900460ff1661184a57600092505050611864565b5080806118569061297a565b91505061179e565b50600190505b90565b600080600090505b60028054905081101561192f57600060028281548110611892576118916128a8565b5b9060005260206000200160009054906101000a900473ffffffffffffffffffffffffffffffffffffffff169050600960008273ffffffffffffffffffffffffffffffffffffffff1673ffffffffffffffffffffffffffffffffffffffff16815260200190815260200160002060009054906101000a900460ff1661191b57600092505050611935565b5080806119279061297a565b91505061186f565b50600190505b90565b60016020528060005260406000206000915054906101000a900460ff1681565b6000611962611cdc565b600060076000856020015173ffffffffffffffffffffffffffffffffffffffff1673ffffffffffffffffffffffffffffffffffffffff1681526020019081526020016000206040518060400160405290816000820160009054906101000a900460ff1660ff1660ff1681526020016000820160019054906101000a900460ff1660ff1660ff16815250509050600081600001518260200151604051602001611a0b929190613084565b6040516020818303038152906040528051906020012090506000806000611a3588600001516112af565b9250925092506000611a4985858585610bed565b90503373ffffffffffffffffffffffffffffffffffffffff168173ffffffffffffffffffffffffffffffffffffffff1614611ab9576040517f08c379a0000000000000000000000000000000000000000000000000000000008152600401611ab090613122565b60405180910390fd5b60011515600360003373ffffffffffffffffffffffffffffffffffffffff1673ffffffffffffffffffffffffffffffffffffffff1681526020019081526020016000208a60000151604051611b0e9190612d75565b908152602001604051809103902060009054906101000a900460ff161515148697509750505050505050915091565b600460008373ffffffffffffffffffffffffffffffffffffffff1673ffffffffffffffffffffffffffffffffffffffff168152602001908152602001600020819080600181540180825580915050600190039060005260206000200160009091909190915060008201518160000160006101000a81548160ff021916908360ff16021790555060208201518160000160016101000a81548160ff021916908360ff1602179055505050600e600460008473ffffffffffffffffffffffffffffffffffffffff1673ffffffffffffffffffffffffffffffffffffffff1681526020019081526020016000208054905003611cd8576001600560008473ffffffffffffffffffffffffffffffffffffffff1673ffffffffffffffffffffffffffffffffffffffff16815260200190815260200160002060006101000a81548160ff02191690831515021790555060066000815480929190611c9b9061297a565b91905055507f4a81f1d754850d36dfb060ff8fdf9523b2038aeea198b68e3daefaca0fd7d33882604051611ccf9190612252565b60405180910390a15b5050565b6040518060400160405280600060ff168152602001600060ff1681525090565b6000819050919050565b611d0f81611cfc565b82525050565b6000602082019050611d2a6000830184611d06565b92915050565b60008115159050919050565b611d4581611d30565b82525050565b6000602082019050611d606000830184611d3c565b92915050565b6000604051905090565b600080fd5b600080fd5b600073ffffffffffffffffffffffffffffffffffffffff82169050919050565b6000611da582611d7a565b9050919050565b611db581611d9a565b8114611dc057600080fd5b50565b600081359050611dd281611dac565b92915050565b600060208284031215611dee57611ded611d70565b5b6000611dfc84828501611dc3565b91505092915050565b600080fd5b6000601f19601f8301169050919050565b7f4e487b7100000000000000000000000000000000000000000000000000000000600052604160045260246000fd5b611e5382611e0a565b810181811067ffffffffffffffff82111715611e7257611e71611e1b565b5b80604052505050565b6000611e85611d66565b9050611e918282611e4a565b919050565b600067ffffffffffffffff821115611eb157611eb0611e1b565b5b602082029050602081019050919050565b600080fd5b600080fd5b600080fd5b600080fd5b600067ffffffffffffffff821115611ef157611ef0611e1b565b5b611efa82611e0a565b9050602081019050919050565b82818337600083830152505050565b6000611f29611f2484611ed6565b611e7b565b905082815260208101848484011115611f4557611f44611ed1565b5b611f50848285611f07565b509392505050565b600082601f830112611f6d57611f6c611e05565b5b8135611f7d848260208601611f16565b91505092915050565b600060408284031215611f9c57611f9b611ec7565b5b611fa66040611e7b565b9050600082013567ffffffffffffffff811115611fc657611fc5611ecc565b5b611fd284828501611f58565b6000830152506020611fe684828501611dc3565b60208301525092915050565b600061200561200084611e96565b611e7b565b9050808382526020820190506020840283018581111561202857612027611ec2565b5b835b8181101561206f57803567ffffffffffffffff81111561204d5761204c611e05565b5b80860161205a8982611f86565b8552602085019450505060208101905061202a565b5050509392505050565b600082601f83011261208e5761208d611e05565b5b813561209e848260208601611ff2565b91505092915050565b6000602082840312156120bd576120bc611d70565b5b600082013567ffffffffffffffff8111156120db576120da611d75565b5b6120e784828501612079565b91505092915050565b600060ff82169050919050565b612106816120f0565b811461211157600080fd5b50565b600081359050612123816120fd565b92915050565b60006040828403121561213f5761213e611ec7565b5b6121496040611e7b565b9050600061215984828501612114565b600083015250602061216d84828501612114565b60208301525092915050565b60006040828403121561218f5761218e611d70565b5b600061219d84828501612129565b91505092915050565b6000819050919050565b6121b9816121a6565b81146121c457600080fd5b50565b6000813590506121d6816121b0565b92915050565b600080600080608085870312156121f6576121f5611d70565b5b6000612204878288016121c7565b945050602061221587828801612114565b9350506040612226878288016121c7565b9250506060612237878288016121c7565b91505092959194509250565b61224c81611d9a565b82525050565b60006020820190506122676000830184612243565b92915050565b600081519050919050565b600082825260208201905092915050565b6000819050602082019050919050565b6122a2816120f0565b82525050565b6122b181611d30565b82525050565b6060820160008201516122cd6000850182612299565b5060208201516122e06020850182612299565b5060408201516122f360408501826122a8565b50505050565b600061230583836122b7565b60608301905092915050565b6000602082019050919050565b60006123298261226d565b6123338185612278565b935061233e83612289565b8060005b8381101561236f57815161235688826122f9565b975061236183612311565b925050600181019050612342565b5085935050505092915050565b60006020820190508181036000830152612396818461231e565b905092915050565b60006123a982611d7a565b9050919050565b6123b98161239e565b82525050565b60006020820190506123d460008301846123b0565b92915050565b600067ffffffffffffffff8211156123f5576123f4611e1b565b5b602082029050602081019050919050565b6000612419612414846123da565b611e7b565b9050808382526020820190506020840283018581111561243c5761243b611ec2565b5b835b8181101561248357803567ffffffffffffffff81111561246157612460611e05565b5b80860161246e8982611f58565b8552602085019450505060208101905061243e565b5050509392505050565b600082601f8301126124a2576124a1611e05565b5b81356124b2848260208601612406565b91505092915050565b6000602082840312156124d1576124d0611d70565b5b600082013567ffffffffffffffff8111156124ef576124ee611d75565b5b6124fb8482850161248d565b91505092915050565b61250d81611cfc565b811461251857600080fd5b50565b60008135905061252a81612504565b92915050565b6000806040838503121561254757612546611d70565b5b600061255585828601611dc3565b92505060206125668582860161251b565b9150509250929050565b612579816120f0565b82525050565b60006060820190506125946000830186612570565b6125a16020830185612570565b6125ae6040830184611d3c565b949350505050565b6000602082840312156125cc576125cb611d70565b5b600082013567ffffffffffffffff8111156125ea576125e9611d75565b5b6125f684828501611f58565b91505092915050565b612608816121a6565b82525050565b60006060820190506126236000830186612570565b61263060208301856125ff565b61263d60408301846125ff565b949350505050565b600060408201905061265a6000830185612570565b6126676020830184612570565b9392505050565b60006020828403121561268457612683611d70565b5b60006126928482850161251b565b91505092915050565b600082825260208201905092915050565b7f47616d65206861736e2774207374617274656400000000000000000000000000600082015250565b60006126e260138361269b565b91506126ed826126ac565b602082019050919050565b60006020820190508181036000830152612711816126d5565b9050919050565b7f47616d65206973206f7665720000000000000000000000000000000000000000600082015250565b600061274e600c8361269b565b915061275982612718565b602082019050919050565b6000602082019050818103600083015261277d81612741565b9050919050565b7f416c6c20706c61796572732068617665206e6f7420706c6179656420666f722060008201527f74686973207475726e2e00000000000000000000000000000000000000000000602082015250565b60006127e0602a8361269b565b91506127eb82612784565b604082019050919050565b6000602082019050818103600083015261280f816127d3565b9050919050565b7f4e6f2077617920796f752063616e2076616c6964617465206d6f72652073686f60008201527f7473207468616e2074686572652061726520706c617965727321000000000000602082015250565b6000612872603a8361269b565b915061287d82612816565b604082019050919050565b600060208201905081810360008301526128a181612865565b9050919050565b7f4e487b7100000000000000000000000000000000000000000000000000000000600052603260045260246000fd5b6040820160008201516128ed6000850182612299565b5060208201516129006020850182612299565b50505050565b600060a08201905061291b60008301876128d7565b6129286040830186612243565b6129356060830185612243565b6129426080830184611d3c565b95945050505050565b7f4e487b7100000000000000000000000000000000000000000000000000000000600052601160045260246000fd5b600061298582611cfc565b91507fffffffffffffffffffffffffffffffffffffffffffffffffffffffffffffffff82036129b7576129b661294b565b5b600182019050919050565b7f6d73672e73656e646572206973206e6f74206120706c6179657220696e20746860008201527f69732067616d6500000000000000000000000000000000000000000000000000602082015250565b6000612a1e60278361269b565b9150612a29826129c2565b604082019050919050565b60006020820190508181036000830152612a4d81612a11565b9050919050565b7f506c6179657220686173206d6164652061206d6f766520666f7220746869732060008201527f7475726e00000000000000000000000000000000000000000000000000000000602082015250565b6000612ab060248361269b565b9150612abb82612a54565b604082019050919050565b60006020820190508181036000830152612adf81612aa3565b9050919050565b600081519050919050565b600081905092915050565b60005b83811015612b1a578082015181840152602081019050612aff565b60008484015250505050565b6000612b3182612ae6565b612b3b8185612af1565b9350612b4b818560208601612afc565b80840191505092915050565b6000819050919050565b612b72612b6d826121a6565b612b57565b82525050565b6000612b848285612b26565b9150612b908284612b61565b6020820191508190509392505050565b6000608082019050612bb560008301876125ff565b612bc26020830186612570565b612bcf60408301856125ff565b612bdc60608301846125ff565b95945050505050565b7f41646472657373206973206e6f7420612070617274206f66207468697320676160008201527f6d65000000000000000000000000000000000000000000000000000000000000602082015250565b6000612c4160228361269b565b9150612c4c82612be5565b604082019050919050565b60006020820190508181036000830152612c7081612c34565b9050919050565b7f4e756d626572206f6620736869702070696563657320646f6573206e6f74206d60008201527f61746368207468652065787065637465642076616c7565000000000000000000602082015250565b6000612cd360378361269b565b9150612cde82612c77565b604082019050919050565b60006020820190508181036000830152612d0281612cc6565b9050919050565b7f506c617965722068617320616c726561647920706c6163656420736869707300600082015250565b6000612d3f601f8361269b565b9150612d4a82612d09565b602082019050919050565b60006020820190508181036000830152612d6e81612d32565b9050919050565b6000612d818284612b26565b915081905092915050565b7f557365722068617320616c726561647920706c6163656420612073686970206f60008201527f6e20746869732074696c652e0000000000000000000000000000000000000000602082015250565b6000612de8602c8361269b565b9150612df382612d8c565b604082019050919050565b60006020820190508181036000830152612e1781612ddb565b9050919050565b7f496e76616c6964205369676e6174757265000000000000000000000000000000600082015250565b6000612e5460118361269b565b9150612e5f82612e1e565b602082019050919050565b60006020820190508181036000830152612e8381612e47565b9050919050565b7f5468652067616d652069736e2774206f76657220796574000000000000000000600082015250565b6000612ec060178361269b565b9150612ecb82612e8a565b602082019050919050565b60006020820190508181036000830152612eef81612eb3565b9050919050565b7f546865207475726e206973206e6f7420796574206f7665722c20736f6d65207060008201527f6c6179657273206172652079657420746f2073686f6f74000000000000000000602082015250565b6000612f5260378361269b565b9150612f5d82612ef6565b604082019050919050565b60006020820190508181036000830152612f8181612f45565b9050919050565b7f536f6d6520706c6179657273206172652079657420746f207265706f7274206860008201527f6974730000000000000000000000000000000000000000000000000000000000602082015250565b6000612fe460238361269b565b9150612fef82612f88565b604082019050919050565b6000602082019050818103600083015261301381612fd7565b9050919050565b600061302582611cfc565b915061303083611cfc565b92508282039050818111156130485761304761294b565b5b92915050565b60008160f81b9050919050565b60006130668261304e565b9050919050565b61307e613079826120f0565b61305b565b82525050565b6000613090828561306d565b6001820191506130a0828461306d565b6001820191508190509392505050565b7f6d73672e73656e64657220616e642064657269766564206d657373616765207360008201527f69676e657220646f206e6f74206d617463680000000000000000000000000000602082015250565b600061310c60328361269b565b9150613117826130b0565b604082019050919050565b6000602082019050818103600083015261313b816130ff565b905091905056fea26469706673582212203663b981ea4ac8e7ba7b43db43aaefbbf240ca5070bb7349a9f7a7b4a502288c64736f6c63430008110033",
  "linkReferences": {},
  "deployedLinkReferences": {}
}